{
  "contractName": "PersonalData",
  "abi": [
    {
      "inputs": [
        {
          "internalType": "string",
          "name": "_firstName",
          "type": "string"
        },
        {
          "internalType": "string",
          "name": "_lastName",
          "type": "string"
        },
        {
          "internalType": "uint256",
          "name": "_birthYear",
          "type": "uint256"
        },
        {
          "internalType": "string",
          "name": "_nationality",
          "type": "string"
        },
        {
          "internalType": "string",
          "name": "_postalAddress",
          "type": "string"
        }
      ],
      "name": "saveData",
      "outputs": [],
      "stateMutability": "nonpayable",
      "type": "function"
    },
    {
      "inputs": [
        {
          "internalType": "string",
          "name": "_firstName",
          "type": "string"
        },
        {
          "internalType": "string",
          "name": "_lastName",
          "type": "string"
        },
        {
          "internalType": "uint256",
          "name": "_birthYear",
          "type": "uint256"
        },
        {
          "internalType": "string",
          "name": "_nationality",
          "type": "string"
        },
        {
          "internalType": "string",
          "name": "_postalAddress",
          "type": "string"
        }
      ],
      "name": "updateData",
      "outputs": [],
      "stateMutability": "nonpayable",
      "type": "function"
    },
    {
      "inputs": [],
      "name": "getData",
      "outputs": [
        {
          "internalType": "string",
          "name": "firstName",
          "type": "string"
        },
        {
          "internalType": "string",
          "name": "lastName",
          "type": "string"
        },
        {
          "internalType": "uint256",
          "name": "birthYear",
          "type": "uint256"
        },
        {
          "internalType": "string",
          "name": "nationality",
          "type": "string"
        },
        {
          "internalType": "string",
          "name": "postalAddress",
          "type": "string"
        }
      ],
      "stateMutability": "view",
      "type": "function",
      "constant": true
    }
  ],
  "bytecode": "0x608060405234801561001057600080fd5b506109b1806100206000396000f3fe608060405234801561001057600080fd5b50600436106100415760003560e01c80633bc5de301461004657806369c36d6f1461006857806379b652eb14610084575b600080fd5b61004e6100a0565b60405161005f95949392919061078b565b60405180910390f35b610082600480360381019061007d919061066c565b610372565b005b61009e6004803603810190610099919061066c565b61045f565b005b606080600060608060008060003373ffffffffffffffffffffffffffffffffffffffff1673ffffffffffffffffffffffffffffffffffffffff1681526020019081526020016000206040518060a0016040529081600082018054610103906108c3565b80601f016020809104026020016040519081016040528092919081815260200182805461012f906108c3565b801561017c5780601f106101515761010080835404028352916020019161017c565b820191906000526020600020905b81548152906001019060200180831161015f57829003601f168201915b50505050508152602001600182018054610195906108c3565b80601f01602080910402602001604051908101604052809291908181526020018280546101c1906108c3565b801561020e5780601f106101e35761010080835404028352916020019161020e565b820191906000526020600020905b8154815290600101906020018083116101f157829003601f168201915b5050505050815260200160028201548152602001600382018054610231906108c3565b80601f016020809104026020016040519081016040528092919081815260200182805461025d906108c3565b80156102aa5780601f1061027f576101008083540402835291602001916102aa565b820191906000526020600020905b81548152906001019060200180831161028d57829003601f168201915b505050505081526020016004820180546102c3906108c3565b80601f01602080910402602001604051908101604052809291908181526020018280546102ef906108c3565b801561033c5780601f106103115761010080835404028352916020019161033c565b820191906000526020600020905b81548152906001019060200180831161031f57829003601f168201915b50505050508152505090508060000151816020015182604001518360600151846080015195509550955095509550509091929394565b6040518060a00160405280868152602001858152602001848152602001838152602001828152506000803373ffffffffffffffffffffffffffffffffffffffff1673ffffffffffffffffffffffffffffffffffffffff16815260200190815260200160002060008201518160000190805190602001906103f392919061054c565b50602082015181600101908051906020019061041092919061054c565b5060408201518160020155606082015181600301908051906020019061043792919061054c565b50608082015181600401908051906020019061045492919061054c565b509050505050505050565b6040518060a00160405280868152602001858152602001848152602001838152602001828152506000803373ffffffffffffffffffffffffffffffffffffffff1673ffffffffffffffffffffffffffffffffffffffff16815260200190815260200160002060008201518160000190805190602001906104e092919061054c565b5060208201518160010190805190602001906104fd92919061054c565b5060408201518160020155606082015181600301908051906020019061052492919061054c565b50608082015181600401908051906020019061054192919061054c565b509050505050505050565b828054610558906108c3565b90600052602060002090601f01602090048101928261057a57600085556105c1565b82601f1061059357805160ff19168380011785556105c1565b828001600101855582156105c1579182015b828111156105c05782518255916020019190600101906105a5565b5b5090506105ce91906105d2565b5090565b5b808211156105eb5760008160009055506001016105d3565b5090565b60006106026105fd8461082b565b6107fa565b90508281526020810184848401111561061a57600080fd5b610625848285610881565b509392505050565b600082601f83011261063e57600080fd5b813561064e8482602086016105ef565b91505092915050565b60008135905061066681610964565b92915050565b600080600080600060a0868803121561068457600080fd5b600086013567ffffffffffffffff81111561069e57600080fd5b6106aa8882890161062d565b955050602086013567ffffffffffffffff8111156106c757600080fd5b6106d38882890161062d565b94505060406106e488828901610657565b935050606086013567ffffffffffffffff81111561070157600080fd5b61070d8882890161062d565b925050608086013567ffffffffffffffff81111561072a57600080fd5b6107368882890161062d565b9150509295509295909350565b600061074e8261085b565b6107588185610866565b9350610768818560208601610890565b61077181610953565b840191505092915050565b61078581610877565b82525050565b600060a08201905081810360008301526107a58188610743565b905081810360208301526107b98187610743565b90506107c8604083018661077c565b81810360608301526107da8185610743565b905081810360808301526107ee8184610743565b90509695505050505050565b6000604051905081810181811067ffffffffffffffff8211171561082157610820610924565b5b8060405250919050565b600067ffffffffffffffff82111561084657610845610924565b5b601f19601f8301169050602081019050919050565b600081519050919050565b600082825260208201905092915050565b6000819050919050565b82818337600083830152505050565b60005b838110156108ae578082015181840152602081019050610893565b838111156108bd576000848401525b50505050565b600060028204905060018216806108db57607f821691505b602082108114156108ef576108ee6108f5565b5b50919050565b7f4e487b7100000000000000000000000000000000000000000000000000000000600052602260045260246000fd5b7f4e487b7100000000000000000000000000000000000000000000000000000000600052604160045260246000fd5b6000601f19601f8301169050919050565b61096d81610877565b811461097857600080fd5b5056fea2646970667358221220b5b22b3f147d0f99306678bac8234c4e370ee1b7a32b8aa1fa68ce542848b3af64736f6c63430008000033",
  "immutableReferences": {},
  "source": "// SPDX-License-Identifier: MIT\npragma solidity ^0.8.0;\n\ncontract PersonalData {\n    struct Person {\n        string firstName;\n        string lastName;\n        uint256 birthYear;\n        string nationality;\n        string postalAddress;\n    }\n\n    mapping(address => Person) private persons;\n\n    // Zapisanie danych osobowych\n    function saveData(\n        string memory _firstName,\n        string memory _lastName,\n        uint256 _birthYear,\n        string memory _nationality,\n        string memory _postalAddress\n    ) public {\n        // Usu zabezpieczenie, ktre blokuje nadpisywanie danych\n        persons[msg.sender] = Person(\n            _firstName,\n            _lastName,\n            _birthYear,\n            _nationality,\n            _postalAddress\n        );\n    }\n\n    // Aktualizacja danych osobowych (teraz pozwala na nadpisanie)\n    function updateData(\n        string memory _firstName,\n        string memory _lastName,\n        uint256 _birthYear,\n        string memory _nationality,\n        string memory _postalAddress\n    ) public {\n        // Nadpisywanie danych uytkownika\n        persons[msg.sender] = Person(\n            _firstName,\n            _lastName,\n            _birthYear,\n            _nationality,\n            _postalAddress\n        );\n    }\n\n    // Pobranie danych osobowych\n    function getData() public view returns (\n        string memory firstName,\n        string memory lastName,\n        uint256 birthYear,\n        string memory nationality,\n        string memory postalAddress\n    ) {\n        Person memory person = persons[msg.sender];\n        return (\n            person.firstName,\n            person.lastName,\n            person.birthYear,\n            person.nationality,\n            person.postalAddress\n        );\n    }\n}\n\n",
  "sourcePath": "/home/sbrzustowicz/Desktop/Projects/local/simple-storage/blockchain/contracts/PersonalData.sol",
  "compiler": {
    "name": "solc",
    "version": "0.8.0+commit.c7dfd78e.Emscripten.clang"
  },
  "schemaVersion": "3.4.16",
  "updatedAt": "2025-01-04T18:40:10.364Z",
  "networkType": "ethereum",
  "devdoc": {
    "kind": "dev",
    "methods": {},
    "version": 1
  },
  "userdoc": {
    "kind": "user",
    "methods": {},
    "version": 1
  }
}